{
    "_format": "hh-sol-artifact-1",
    "contractName": "GatewayUpgradeable",
    "sourceName": "contracts/GatewayUpgradeable.sol",
    "abi": [
        {
            "inputs": [],
            "name": "IncorrectCheckpoint",
            "type": "error"
        },
        {
            "inputs": [
                {
                    "internalType": "uint64",
                    "name": "cumulativePower",
                    "type": "uint64"
                },
                {
                    "internalType": "uint64",
                    "name": "powerThreshold",
                    "type": "uint64"
                }
            ],
            "name": "InsufficientPower",
            "type": "error"
        },
        {
            "inputs": [],
            "name": "InvalidEcdsaSignature",
            "type": "error"
        },
        {
            "inputs": [],
            "name": "InvalidS",
            "type": "error"
        },
        {
            "inputs": [],
            "name": "InvalidSignature",
            "type": "error"
        },
        {
            "inputs": [],
            "name": "InvalidSignatureLength",
            "type": "error"
        },
        {
            "inputs": [],
            "name": "MalformedCurrentValidatorSet",
            "type": "error"
        },
        {
            "anonymous": false,
            "inputs": [
                {
                    "indexed": false,
                    "internalType": "address",
                    "name": "previousAdmin",
                    "type": "address"
                },
                {
                    "indexed": false,
                    "internalType": "address",
                    "name": "newAdmin",
                    "type": "address"
                }
            ],
            "name": "AdminChanged",
            "type": "event"
        },
        {
            "anonymous": false,
            "inputs": [
                {
                    "indexed": true,
                    "internalType": "address",
                    "name": "beacon",
                    "type": "address"
                }
            ],
            "name": "BeaconUpgraded",
            "type": "event"
        },
        {
            "anonymous": false,
            "inputs": [
                {
                    "indexed": true,
                    "internalType": "uint256",
                    "name": "eventNonce",
                    "type": "uint256"
                },
                {
                    "indexed": true,
                    "internalType": "uint256",
                    "name": "requestIdentifier",
                    "type": "uint256"
                },
                {
                    "indexed": false,
                    "internalType": "string",
                    "name": "relayerRouterAddress",
                    "type": "string"
                },
                {
                    "indexed": false,
                    "internalType": "string",
                    "name": "chainId",
                    "type": "string"
                },
                {
                    "indexed": false,
                    "internalType": "bytes",
                    "name": "data",
                    "type": "bytes"
                },
                {
                    "indexed": false,
                    "internalType": "bool",
                    "name": "success",
                    "type": "bool"
                }
            ],
            "name": "IAckEvent",
            "type": "event"
        },
        {
            "anonymous": false,
            "inputs": [
                {
                    "indexed": true,
                    "internalType": "uint256",
                    "name": "requestIdentifier",
                    "type": "uint256"
                },
                {
                    "indexed": true,
                    "internalType": "uint256",
                    "name": "eventNonce",
                    "type": "uint256"
                },
                {
                    "indexed": false,
                    "internalType": "string",
                    "name": "srcChainId",
                    "type": "string"
                },
                {
                    "indexed": false,
                    "internalType": "string",
                    "name": "destChainId",
                    "type": "string"
                },
                {
                    "indexed": false,
                    "internalType": "string",
                    "name": "relayerRouterAddress",
                    "type": "string"
                },
                {
                    "indexed": false,
                    "internalType": "string",
                    "name": "requestSender",
                    "type": "string"
                },
                {
                    "indexed": false,
                    "internalType": "bytes",
                    "name": "execData",
                    "type": "bytes"
                },
                {
                    "indexed": false,
                    "internalType": "bool",
                    "name": "execStatus",
                    "type": "bool"
                }
            ],
            "name": "IReceiveEvent",
            "type": "event"
        },
        {
            "anonymous": false,
            "inputs": [
                {
                    "indexed": false,
                    "internalType": "uint256",
                    "name": "version",
                    "type": "uint256"
                },
                {
                    "indexed": false,
                    "internalType": "uint256",
                    "name": "routeAmount",
                    "type": "uint256"
                },
                {
                    "indexed": true,
                    "internalType": "uint256",
                    "name": "eventNonce",
                    "type": "uint256"
                },
                {
                    "indexed": false,
                    "internalType": "address",
                    "name": "requestSender",
                    "type": "address"
                },
                {
                    "indexed": false,
                    "internalType": "string",
                    "name": "srcChainId",
                    "type": "string"
                },
                {
                    "indexed": false,
                    "internalType": "string",
                    "name": "destChainId",
                    "type": "string"
                },
                {
                    "indexed": false,
                    "internalType": "string",
                    "name": "routeRecipient",
                    "type": "string"
                },
                {
                    "indexed": false,
                    "internalType": "bytes",
                    "name": "requestMetadata",
                    "type": "bytes"
                },
                {
                    "indexed": false,
                    "internalType": "bytes",
                    "name": "requestPacket",
                    "type": "bytes"
                }
            ],
            "name": "ISendEvent",
            "type": "event"
        },
        {
            "anonymous": false,
            "inputs": [
                {
                    "indexed": false,
                    "internalType": "uint8",
                    "name": "version",
                    "type": "uint8"
                }
            ],
            "name": "Initialized",
            "type": "event"
        },
        {
            "anonymous": false,
            "inputs": [
                {
                    "indexed": false,
                    "internalType": "address",
                    "name": "account",
                    "type": "address"
                }
            ],
            "name": "Paused",
            "type": "event"
        },
        {
            "anonymous": false,
            "inputs": [
                {
                    "indexed": true,
                    "internalType": "bytes32",
                    "name": "role",
                    "type": "bytes32"
                },
                {
                    "indexed": true,
                    "internalType": "bytes32",
                    "name": "previousAdminRole",
                    "type": "bytes32"
                },
                {
                    "indexed": true,
                    "internalType": "bytes32",
                    "name": "newAdminRole",
                    "type": "bytes32"
                }
            ],
            "name": "RoleAdminChanged",
            "type": "event"
        },
        {
            "anonymous": false,
            "inputs": [
                {
                    "indexed": true,
                    "internalType": "bytes32",
                    "name": "role",
                    "type": "bytes32"
                },
                {
                    "indexed": true,
                    "internalType": "address",
                    "name": "account",
                    "type": "address"
                },
                {
                    "indexed": true,
                    "internalType": "address",
                    "name": "sender",
                    "type": "address"
                }
            ],
            "name": "RoleGranted",
            "type": "event"
        },
        {
            "anonymous": false,
            "inputs": [
                {
                    "indexed": true,
                    "internalType": "bytes32",
                    "name": "role",
                    "type": "bytes32"
                },
                {
                    "indexed": true,
                    "internalType": "address",
                    "name": "account",
                    "type": "address"
                },
                {
                    "indexed": true,
                    "internalType": "address",
                    "name": "sender",
                    "type": "address"
                }
            ],
            "name": "RoleRevoked",
            "type": "event"
        },
        {
            "anonymous": false,
            "inputs": [
                {
                    "indexed": true,
                    "internalType": "uint256",
                    "name": "eventNonce",
                    "type": "uint256"
                },
                {
                    "indexed": false,
                    "internalType": "address",
                    "name": "dappAddress",
                    "type": "address"
                },
                {
                    "indexed": false,
                    "internalType": "string",
                    "name": "chainId",
                    "type": "string"
                },
                {
                    "indexed": false,
                    "internalType": "string",
                    "name": "feePayerAddress",
                    "type": "string"
                }
            ],
            "name": "SetDappMetadataEvent",
            "type": "event"
        },
        {
            "anonymous": false,
            "inputs": [
                {
                    "indexed": false,
                    "internalType": "address",
                    "name": "vaultAddress",
                    "type": "address"
                }
            ],
            "name": "SetVaultEvent",
            "type": "event"
        },
        {
            "anonymous": false,
            "inputs": [
                {
                    "indexed": false,
                    "internalType": "address",
                    "name": "account",
                    "type": "address"
                }
            ],
            "name": "Unpaused",
            "type": "event"
        },
        {
            "anonymous": false,
            "inputs": [
                {
                    "indexed": true,
                    "internalType": "address",
                    "name": "implementation",
                    "type": "address"
                }
            ],
            "name": "Upgraded",
            "type": "event"
        },
        {
            "anonymous": false,
            "inputs": [
                {
                    "indexed": true,
                    "internalType": "uint256",
                    "name": "_newValsetNonce",
                    "type": "uint256"
                },
                {
                    "indexed": true,
                    "internalType": "uint256",
                    "name": "_eventNonce",
                    "type": "uint256"
                },
                {
                    "indexed": false,
                    "internalType": "string",
                    "name": "srcChainId",
                    "type": "string"
                },
                {
                    "indexed": false,
                    "internalType": "address[]",
                    "name": "_validators",
                    "type": "address[]"
                },
                {
                    "indexed": false,
                    "internalType": "uint64[]",
                    "name": "_powers",
                    "type": "uint64[]"
                }
            ],
            "name": "ValsetUpdatedEvent",
            "type": "event"
        },
        {
            "inputs": [],
            "name": "DEFAULT_ADMIN_ROLE",
            "outputs": [
                {
                    "internalType": "bytes32",
                    "name": "",
                    "type": "bytes32"
                }
            ],
            "stateMutability": "view",
            "type": "function"
        },
        {
            "inputs": [
                {
                    "internalType": "uint256",
                    "name": "",
                    "type": "uint256"
                }
            ],
            "name": "ackNonceExecuted",
            "outputs": [
                {
                    "internalType": "bool",
                    "name": "",
                    "type": "bool"
                }
            ],
            "stateMutability": "view",
            "type": "function"
        },
        {
            "inputs": [],
            "name": "chainId",
            "outputs": [
                {
                    "internalType": "string",
                    "name": "",
                    "type": "string"
                }
            ],
            "stateMutability": "view",
            "type": "function"
        },
        {
            "inputs": [],
            "name": "currentVersion",
            "outputs": [
                {
                    "internalType": "uint256",
                    "name": "",
                    "type": "uint256"
                }
            ],
            "stateMutability": "view",
            "type": "function"
        },
        {
            "inputs": [],
            "name": "eventNonce",
            "outputs": [
                {
                    "internalType": "uint256",
                    "name": "",
                    "type": "uint256"
                }
            ],
            "stateMutability": "view",
            "type": "function"
        },
        {
            "inputs": [
                {
                    "internalType": "bytes32",
                    "name": "role",
                    "type": "bytes32"
                }
            ],
            "name": "getRoleAdmin",
            "outputs": [
                {
                    "internalType": "bytes32",
                    "name": "",
                    "type": "bytes32"
                }
            ],
            "stateMutability": "view",
            "type": "function"
        },
        {
            "inputs": [
                {
                    "internalType": "bytes32",
                    "name": "role",
                    "type": "bytes32"
                },
                {
                    "internalType": "address",
                    "name": "account",
                    "type": "address"
                }
            ],
            "name": "grantRole",
            "outputs": [],
            "stateMutability": "nonpayable",
            "type": "function"
        },
        {
            "inputs": [
                {
                    "internalType": "bytes32",
                    "name": "role",
                    "type": "bytes32"
                },
                {
                    "internalType": "address",
                    "name": "account",
                    "type": "address"
                }
            ],
            "name": "hasRole",
            "outputs": [
                {
                    "internalType": "bool",
                    "name": "",
                    "type": "bool"
                }
            ],
            "stateMutability": "view",
            "type": "function"
        },
        {
            "inputs": [
                {
                    "components": [
                        {
                            "internalType": "address[]",
                            "name": "validators",
                            "type": "address[]"
                        },
                        {
                            "internalType": "uint64[]",
                            "name": "powers",
                            "type": "uint64[]"
                        },
                        {
                            "internalType": "uint256",
                            "name": "valsetNonce",
                            "type": "uint256"
                        }
                    ],
                    "internalType": "struct Utils.ValsetArgs",
                    "name": "_currentValset",
                    "type": "tuple"
                },
                {
                    "internalType": "bytes[]",
                    "name": "_sigs",
                    "type": "bytes[]"
                },
                {
                    "components": [
                        {
                            "internalType": "uint256",
                            "name": "requestIdentifier",
                            "type": "uint256"
                        },
                        {
                            "internalType": "uint256",
                            "name": "ackRequestIdentifier",
                            "type": "uint256"
                        },
                        {
                            "internalType": "string",
                            "name": "destChainId",
                            "type": "string"
                        },
                        {
                            "internalType": "address",
                            "name": "requestSender",
                            "type": "address"
                        },
                        {
                            "internalType": "bytes",
                            "name": "execData",
                            "type": "bytes"
                        },
                        {
                            "internalType": "bool",
                            "name": "execFlag",
                            "type": "bool"
                        }
                    ],
                    "internalType": "struct Utils.CrossChainAckPayload",
                    "name": "crossChainAckPayload",
                    "type": "tuple"
                },
                {
                    "internalType": "string",
                    "name": "relayerRouterAddress",
                    "type": "string"
                }
            ],
            "name": "iAck",
            "outputs": [],
            "stateMutability": "nonpayable",
            "type": "function"
        },
        {
            "inputs": [
                {
                    "components": [
                        {
                            "internalType": "address[]",
                            "name": "validators",
                            "type": "address[]"
                        },
                        {
                            "internalType": "uint64[]",
                            "name": "powers",
                            "type": "uint64[]"
                        },
                        {
                            "internalType": "uint256",
                            "name": "valsetNonce",
                            "type": "uint256"
                        }
                    ],
                    "internalType": "struct Utils.ValsetArgs",
                    "name": "_currentValset",
                    "type": "tuple"
                },
                {
                    "internalType": "bytes[]",
                    "name": "_sigs",
                    "type": "bytes[]"
                },
                {
                    "components": [
                        {
                            "internalType": "uint256",
                            "name": "routeAmount",
                            "type": "uint256"
                        },
                        {
                            "internalType": "uint256",
                            "name": "requestIdentifier",
                            "type": "uint256"
                        },
                        {
                            "internalType": "uint256",
                            "name": "requestTimestamp",
                            "type": "uint256"
                        },
                        {
                            "internalType": "string",
                            "name": "srcChainId",
                            "type": "string"
                        },
                        {
                            "internalType": "address",
                            "name": "routeRecipient",
                            "type": "address"
                        },
                        {
                            "internalType": "string",
                            "name": "destChainId",
                            "type": "string"
                        },
                        {
                            "internalType": "address",
                            "name": "asmAddress",
                            "type": "address"
                        },
                        {
                            "internalType": "string",
                            "name": "requestSender",
                            "type": "string"
                        },
                        {
                            "internalType": "address",
                            "name": "handlerAddress",
                            "type": "address"
                        },
                        {
                            "internalType": "bytes",
                            "name": "packet",
                            "type": "bytes"
                        },
                        {
                            "internalType": "bool",
                            "name": "isReadCall",
                            "type": "bool"
                        }
                    ],
                    "internalType": "struct Utils.RequestPayload",
                    "name": "requestPayload",
                    "type": "tuple"
                },
                {
                    "internalType": "string",
                    "name": "relayerRouterAddress",
                    "type": "string"
                }
            ],
            "name": "iReceive",
            "outputs": [],
            "stateMutability": "nonpayable",
            "type": "function"
        },
        {
            "inputs": [
                {
                    "internalType": "uint256",
                    "name": "version",
                    "type": "uint256"
                },
                {
                    "internalType": "uint256",
                    "name": "routeAmount",
                    "type": "uint256"
                },
                {
                    "internalType": "string",
                    "name": "routeRecipient",
                    "type": "string"
                },
                {
                    "internalType": "string",
                    "name": "destChainId",
                    "type": "string"
                },
                {
                    "internalType": "bytes",
                    "name": "requestMetadata",
                    "type": "bytes"
                },
                {
                    "internalType": "bytes",
                    "name": "requestPacket",
                    "type": "bytes"
                }
            ],
            "name": "iSend",
            "outputs": [
                {
                    "internalType": "uint256",
                    "name": "",
                    "type": "uint256"
                }
            ],
            "stateMutability": "payable",
            "type": "function"
        },
        {
            "inputs": [],
            "name": "iSendDefaultFee",
            "outputs": [
                {
                    "internalType": "uint256",
                    "name": "",
                    "type": "uint256"
                }
            ],
            "stateMutability": "view",
            "type": "function"
        },
        {
            "inputs": [
                {
                    "internalType": "string",
                    "name": "_chainId",
                    "type": "string"
                },
                {
                    "internalType": "address[]",
                    "name": "_validators",
                    "type": "address[]"
                },
                {
                    "internalType": "uint64[]",
                    "name": "_powers",
                    "type": "uint64[]"
                },
                {
                    "internalType": "uint64",
                    "name": "valsetNonce",
                    "type": "uint64"
                }
            ],
            "name": "initialize",
            "outputs": [],
            "stateMutability": "nonpayable",
            "type": "function"
        },
        {
            "inputs": [
                {
                    "internalType": "string",
                    "name": "",
                    "type": "string"
                },
                {
                    "internalType": "uint256",
                    "name": "",
                    "type": "uint256"
                }
            ],
            "name": "nonceExecuted",
            "outputs": [
                {
                    "internalType": "bool",
                    "name": "",
                    "type": "bool"
                }
            ],
            "stateMutability": "view",
            "type": "function"
        },
        {
            "inputs": [],
            "name": "pause",
            "outputs": [],
            "stateMutability": "nonpayable",
            "type": "function"
        },
        {
            "inputs": [],
            "name": "paused",
            "outputs": [
                {
                    "internalType": "bool",
                    "name": "",
                    "type": "bool"
                }
            ],
            "stateMutability": "view",
            "type": "function"
        },
        {
            "inputs": [],
            "name": "proxiableUUID",
            "outputs": [
                {
                    "internalType": "bytes32",
                    "name": "",
                    "type": "bytes32"
                }
            ],
            "stateMutability": "view",
            "type": "function"
        },
        {
            "inputs": [
                {
                    "internalType": "bytes32",
                    "name": "role",
                    "type": "bytes32"
                },
                {
                    "internalType": "address",
                    "name": "account",
                    "type": "address"
                }
            ],
            "name": "renounceRole",
            "outputs": [],
            "stateMutability": "nonpayable",
            "type": "function"
        },
        {
            "inputs": [
                {
                    "internalType": "bytes32",
                    "name": "role",
                    "type": "bytes32"
                },
                {
                    "internalType": "address",
                    "name": "account",
                    "type": "address"
                }
            ],
            "name": "revokeRole",
            "outputs": [],
            "stateMutability": "nonpayable",
            "type": "function"
        },
        {
            "inputs": [
                {
                    "internalType": "uint256",
                    "name": "_iSendDefaultFee",
                    "type": "uint256"
                }
            ],
            "name": "setBridgeFees",
            "outputs": [],
            "stateMutability": "nonpayable",
            "type": "function"
        },
        {
            "inputs": [
                {
                    "internalType": "uint256",
                    "name": "newVersion",
                    "type": "uint256"
                }
            ],
            "name": "setCurrentVersion",
            "outputs": [],
            "stateMutability": "nonpayable",
            "type": "function"
        },
        {
            "inputs": [
                {
                    "internalType": "string",
                    "name": "feePayerAddress",
                    "type": "string"
                }
            ],
            "name": "setDappMetadata",
            "outputs": [
                {
                    "internalType": "uint256",
                    "name": "",
                    "type": "uint256"
                }
            ],
            "stateMutability": "payable",
            "type": "function"
        },
        {
            "inputs": [
                {
                    "internalType": "address",
                    "name": "_vaultAddress",
                    "type": "address"
                }
            ],
            "name": "setVault",
            "outputs": [],
            "stateMutability": "nonpayable",
            "type": "function"
        },
        {
            "inputs": [],
            "name": "stateLastValsetCheckpoint",
            "outputs": [
                {
                    "internalType": "bytes32",
                    "name": "",
                    "type": "bytes32"
                }
            ],
            "stateMutability": "view",
            "type": "function"
        },
        {
            "inputs": [],
            "name": "stateLastValsetNonce",
            "outputs": [
                {
                    "internalType": "uint256",
                    "name": "",
                    "type": "uint256"
                }
            ],
            "stateMutability": "view",
            "type": "function"
        },
        {
            "inputs": [
                {
                    "internalType": "bytes4",
                    "name": "interfaceId",
                    "type": "bytes4"
                }
            ],
            "name": "supportsInterface",
            "outputs": [
                {
                    "internalType": "bool",
                    "name": "",
                    "type": "bool"
                }
            ],
            "stateMutability": "view",
            "type": "function"
        },
        {
            "inputs": [],
            "name": "unpause",
            "outputs": [],
            "stateMutability": "nonpayable",
            "type": "function"
        },
        {
            "inputs": [
                {
                    "components": [
                        {
                            "internalType": "address[]",
                            "name": "validators",
                            "type": "address[]"
                        },
                        {
                            "internalType": "uint64[]",
                            "name": "powers",
                            "type": "uint64[]"
                        },
                        {
                            "internalType": "uint256",
                            "name": "valsetNonce",
                            "type": "uint256"
                        }
                    ],
                    "internalType": "struct Utils.ValsetArgs",
                    "name": "_newValset",
                    "type": "tuple"
                },
                {
                    "components": [
                        {
                            "internalType": "address[]",
                            "name": "validators",
                            "type": "address[]"
                        },
                        {
                            "internalType": "uint64[]",
                            "name": "powers",
                            "type": "uint64[]"
                        },
                        {
                            "internalType": "uint256",
                            "name": "valsetNonce",
                            "type": "uint256"
                        }
                    ],
                    "internalType": "struct Utils.ValsetArgs",
                    "name": "_currentValset",
                    "type": "tuple"
                },
                {
                    "internalType": "bytes[]",
                    "name": "_sigs",
                    "type": "bytes[]"
                }
            ],
            "name": "updateValset",
            "outputs": [],
            "stateMutability": "nonpayable",
            "type": "function"
        },
        {
            "inputs": [
                {
                    "internalType": "address",
                    "name": "newImplementation",
                    "type": "address"
                }
            ],
            "name": "upgradeTo",
            "outputs": [],
            "stateMutability": "nonpayable",
            "type": "function"
        },
        {
            "inputs": [
                {
                    "internalType": "address",
                    "name": "newImplementation",
                    "type": "address"
                },
                {
                    "internalType": "bytes",
                    "name": "data",
                    "type": "bytes"
                }
            ],
            "name": "upgradeToAndCall",
            "outputs": [],
            "stateMutability": "payable",
            "type": "function"
        },
        {
            "inputs": [],
            "name": "vault",
            "outputs": [
                {
                    "internalType": "contract AssetVault",
                    "name": "",
                    "type": "address"
                }
            ],
            "stateMutability": "view",
            "type": "function"
        },
        {
            "inputs": [
                {
                    "internalType": "address",
                    "name": "recipient",
                    "type": "address"
                }
            ],
            "name": "withdrawFee",
            "outputs": [],
            "stateMutability": "nonpayable",
            "type": "function"
        },
        {
            "stateMutability": "payable",
            "type": "receive"
        }
    ],
    "bytecode": "0x60a06040523060805234801561001457600080fd5b50608051614ccb61004c60003960008181610b0e01528181610bbe015281816115fe015281816116ae0152611b4d0152614ccb6000f3fe6080604052600436106101e75760003560e01c80635c975abb11610102578063a0436a4111610095578063ea76f6d711610064578063ea76f6d71461059f578063ef15cbda146105bf578063f3a0ce41146105d2578063fbfa77cf146105f257600080fd5b8063a0436a4114610522578063a217fddf14610553578063a707d6b814610568578063d547741f1461057f57600080fd5b80638456cb59116100d15780638456cb591461048157806391d14854146104965780639a8a0592146104e95780639d888e861461050b57600080fd5b80635c975abb146103ea5780636817031b146104025780637a40d0f7146104225780637bed470a1461046e57600080fd5b80633659cfe61161017a57806344bdf5a71161014957806344bdf5a7146103825780634f1ef286146103a257806351b6ac3f146103b557806352d1902d146103d557600080fd5b80633659cfe6146103165780633bcced29146103365780633f4ba83a1461035657806342fb207c1461036b57600080fd5b80632205643a116101b65780632205643a14610286578063248a9ca3146102a65780632f2ff15d146102d657806336568abe146102f657600080fd5b806301ffc9a7146101f357806305cf22fc146102285780631ac3ddeb1461024d5780631c3e6ee61461026f57600080fd5b366101ee57005b600080fd5b3480156101ff57600080fd5b5061021361020e366004613505565b610645565b60405190151581526020015b60405180910390f35b34801561023457600080fd5b5061023f6101645481565b60405190815260200161021f565b34801561025957600080fd5b5061026d610268366004613570565b6106de565b005b34801561027b57600080fd5b5061023f6101625481565b34801561029257600080fd5b5061026d6102a1366004613761565b610730565b3480156102b257600080fd5b5061023f6102c136600461389c565b60009081526097602052604090206001015490565b3480156102e257600080fd5b5061026d6102f13660046138b5565b610a1e565b34801561030257600080fd5b5061026d6103113660046138b5565b610a43565b34801561032257600080fd5b5061026d610331366004613570565b610af6565b34801561034257600080fd5b5061026d6103513660046138e1565b610cfc565b34801561036257600080fd5b5061026d610e9e565b34801561037757600080fd5b5061023f6101635481565b34801561038e57600080fd5b5061026d61039d36600461396c565b610eb1565b61026d6103b0366004613b06565b6115e6565b3480156103c157600080fd5b5061026d6103d0366004613c64565b6117d9565b3480156103e157600080fd5b5061023f611b33565b3480156103f657600080fd5b5060335460ff16610213565b34801561040e57600080fd5b5061026d61041d366004613570565b611c1f565b34801561042e57600080fd5b5061021361043d366004613cfd565b8151602081840181018051610166825292820194820194909420919093529091526000908152604090205460ff1681565b61023f61047c366004613d84565b611d22565b34801561048d57600080fd5b5061026d611f08565b3480156104a257600080fd5b506102136104b13660046138b5565b600091825260976020908152604080842073ffffffffffffffffffffffffffffffffffffffff93909316845291905290205460ff1690565b3480156104f557600080fd5b506104fe611f1b565b60405161021f9190613ed4565b34801561051757600080fd5b5061023f6101615481565b34801561052e57600080fd5b5061021361053d36600461389c565b6101676020526000908152604090205460ff1681565b34801561055f57600080fd5b5061023f600081565b34801561057457600080fd5b5061023f6101655481565b34801561058b57600080fd5b5061026d61059a3660046138b5565b611faa565b3480156105ab57600080fd5b5061026d6105ba36600461389c565b611fcf565b61023f6105cd366004613ee7565b611fe1565b3480156105de57600080fd5b5061026d6105ed36600461389c565b6120b0565b3480156105fe57600080fd5b50610160546106209073ffffffffffffffffffffffffffffffffffffffff1681565b60405173ffffffffffffffffffffffffffffffffffffffff909116815260200161021f565b60007fffffffff0000000000000000000000000000000000000000000000000000000082167f7965db0b0000000000000000000000000000000000000000000000000000000014806106d857507f01ffc9a7000000000000000000000000000000000000000000000000000000007fffffffff000000000000000000000000000000000000000000000000000000008316145b92915050565b60006106e9816120c2565b60405173ffffffffffffffffffffffffffffffffffffffff8316904780156108fc02916000818181858888f1935050505015801561072b573d6000803e3d6000fd5b505050565b6107386120cc565b61074061213b565b6020808301516000908152610167909152604090205460ff16156107c5576040517f08c379a000000000000000000000000000000000000000000000000000000000815260206004820152600360248201527f433036000000000000000000000000000000000000000000000000000000000060448201526064015b60405180910390fd5b60007f6941636b0000000000000000000000000000000000000000000000000000000060001b61015f846000015185602001518660400151876060015188608001518960a00151604051602001610823989796959493929190613fff565b6040516020818303038152906040529050610840868686846121b1565b6020808401516000908152610167909152604080822080547fffffffffffffffffffffffffffffffffffffffffffffffffffffffffffffff00166001908117909155610162805490910190819055606080870151875160a089015160808a01519551949695939473ffffffffffffffffffffffffffffffffffffffff909316937fa4e2128800000000000000000000000000000000000000000000000000000000936108f193929190602401614081565b604080517fffffffffffffffffffffffffffffffffffffffffffffffffffffffffffffffe08184030181529181526020820180517bffffffffffffffffffffffffffffffffffffffffffffffffffffffff167fffffffff0000000000000000000000000000000000000000000000000000000090941693909317909252905161097a91906140a2565b6000604051808303816000865af19150503d80600081146109b7576040519150601f19603f3d011682016040523d82523d6000602084013e6109bc565b606091505b5087516040519294509092509084907f21a2de7d1ff2cd4fe0ffece047122598d9d5ef15a7aecff28f73c7deae9d64db90610a0090899061015f90879089906140be565b60405180910390a350505050610a17600161012d55565b5050505050565b600082815260976020526040902060010154610a39816120c2565b61072b8383612225565b73ffffffffffffffffffffffffffffffffffffffff81163314610ae8576040517f08c379a000000000000000000000000000000000000000000000000000000000815260206004820152602f60248201527f416363657373436f6e74726f6c3a2063616e206f6e6c792072656e6f756e636560448201527f20726f6c657320666f722073656c66000000000000000000000000000000000060648201526084016107bc565b610af28282612319565b5050565b3073ffffffffffffffffffffffffffffffffffffffff7f0000000000000000000000000000000000000000000000000000000000000000161415610bbc576040517f08c379a000000000000000000000000000000000000000000000000000000000815260206004820152602c60248201527f46756e6374696f6e206d7573742062652063616c6c6564207468726f7567682060448201527f64656c656761746563616c6c000000000000000000000000000000000000000060648201526084016107bc565b7f000000000000000000000000000000000000000000000000000000000000000073ffffffffffffffffffffffffffffffffffffffff16610c317f360894a13ba1a3210667c828492db98dca3e2076cc3735a920a3ca505d382bbc5473ffffffffffffffffffffffffffffffffffffffff1690565b73ffffffffffffffffffffffffffffffffffffffff1614610cd4576040517f08c379a000000000000000000000000000000000000000000000000000000000815260206004820152602c60248201527f46756e6374696f6e206d7573742062652063616c6c6564207468726f7567682060448201527f6163746976652070726f7879000000000000000000000000000000000000000060648201526084016107bc565b610cdd816123d4565b60408051600080825260208201909252610cf9918391906123df565b50565b610d046120cc565b610d0c61213b565b6040517fa0c8e6a900000000000000000000000000000000000000000000000000000000815273__$815ff532e41681dcdf8236f89dc1cc18b5$__9063a0c8e6a990610d5e908790879060040161423a565b60006040518083038186803b158015610d7657600080fd5b505af4158015610d8a573d6000803e3d6000fd5b5050505061016454610da484610d9f9061425f565b6125de565b14610ddb576040517f723a340300000000000000000000000000000000000000000000000000000000815260040160405180910390fd5b6000610de9610d9f8661425f565b90506000610df682612664565b9050610e098585858463a66666666126cb565b6101648290556040860135610163556101628054906000610e298361431f565b90915550506101625460408701357f20d5dcc846f7451afb9c8dc6dbf5f2242d04549ae17eb976f19b36cb4d7e165661015f610e658a80614358565b610e7260208d018d614358565b604051610e839594939291906143c0565b60405180910390a35050610e98600161012d55565b50505050565b6000610ea9816120c2565b610cf9612938565b610eb96120cc565b610ec161213b565b81516020808401516040808601516060870151608088015160a089015160c08a015160e08b01516101008c01516101208d01516101408e0151985160009c610f379c7f69526563656976650000000000000000000000000000000000000000000000009c919b919a999897969594939201614472565b6040516020818303038152906040529050610f54868686846121b1565b8260a001518051906020012061015f604051610f709190614541565b604051809103902014610fdf576040517f08c379a000000000000000000000000000000000000000000000000000000000815260206004820152600d60248201527f77726f6e6720646573742049440000000000000000000000000000000000000060448201526064016107bc565b6101668360600151604051610ff491906140a2565b9081526040805160209281900383019020858301516000908152925290205460ff161561107d576040517f08c379a000000000000000000000000000000000000000000000000000000000815260206004820152600360248201527f433036000000000000000000000000000000000000000000000000000000000060448201526064016107bc565b82511561119b57608083015173ffffffffffffffffffffffffffffffffffffffff16611105576040517f08c379a000000000000000000000000000000000000000000000000000000000815260206004820152601360248201527f526563697069656e74203d20616464722830290000000000000000000000000060448201526064016107bc565b61016054835160808501516040517f3fdb071d000000000000000000000000000000000000000000000000000000008152600481019290925273ffffffffffffffffffffffffffffffffffffffff908116602483015290911690633fdb071d90604401600060405180830381600087803b15801561118257600080fd5b505af1158015611196573d6000803e3d6000fd5b505050505b60c083015160019073ffffffffffffffffffffffffffffffffffffffff16158015906111cb575060c08401513b15155b156112945760c0840151602085015160408087015160e088015160608901516101208a01516101008b015194517fcc54dc9500000000000000000000000000000000000000000000000000000000815273ffffffffffffffffffffffffffffffffffffffff88169663cc54dc959661124d9691959194919391926004016145d1565b6020604051808303816000875af115801561126c573d6000803e3d6000fd5b505050506040513d601f19601f820116820180604052508101906112909190614640565b9150505b600161016685606001516040516112ab91906140a2565b90815260408051602092819003830190208783015160009081529252902080547fffffffffffffffffffffffffffffffffffffffffffffffffffffffffffffff0016911515919091179055610162805460010190819055816113e4578085602001517f3bf9ad3ae3a3a7c22a8cb63b259bcf1abc195a223b499b4c8e884981d6154839876060015161015f888a60e00151600060405160200161135990602080825260009082015260400190565b604080517fffffffffffffffffffffffffffffffffffffffffffffffffffffffffffffffe081840301815290829052611395929160200161465d565b604080517fffffffffffffffffffffffffffffffffffffffffffffffffffffffffffffffe0818403018152908290526113d49594939291600090614678565b60405180910390a35050506115db565b6060600086610140015161150d5786610100015173ffffffffffffffffffffffffffffffffffffffff16631aa6485a60e01b8860e001518961012001518a60600151604051602401611438939291906146ef565b604080517fffffffffffffffffffffffffffffffffffffffffffffffffffffffffffffffe08184030181529181526020820180517bffffffffffffffffffffffffffffffffffffffffffffffffffffffff167fffffffff000000000000000000000000000000000000000000000000000000009094169390931790925290516114c191906140a2565b6000604051808303816000865af19150503d80600081146114fe576040519150601f19603f3d011682016040523d82523d6000602084013e611503565b606091505b5092509050611584565b86610100015173ffffffffffffffffffffffffffffffffffffffff1687610120015160405161153c91906140a2565b6000604051808303816000865af19150503d8060008114611579576040519150601f19603f3d011682016040523d82523d6000602084013e61157e565b606091505b50925090505b8287602001517f3bf9ad3ae3a3a7c22a8cb63b259bcf1abc195a223b499b4c8e884981d6154839896060015161015f8a8c60e0015188886040516115cd96959493929190614678565b60405180910390a350505050505b610a17600161012d55565b3073ffffffffffffffffffffffffffffffffffffffff7f00000000000000000000000000000000000000000000000000000000000000001614156116ac576040517f08c379a000000000000000000000000000000000000000000000000000000000815260206004820152602c60248201527f46756e6374696f6e206d7573742062652063616c6c6564207468726f7567682060448201527f64656c656761746563616c6c000000000000000000000000000000000000000060648201526084016107bc565b7f000000000000000000000000000000000000000000000000000000000000000073ffffffffffffffffffffffffffffffffffffffff166117217f360894a13ba1a3210667c828492db98dca3e2076cc3735a920a3ca505d382bbc5473ffffffffffffffffffffffffffffffffffffffff1690565b73ffffffffffffffffffffffffffffffffffffffff16146117c4576040517f08c379a000000000000000000000000000000000000000000000000000000000815260206004820152602c60248201527f46756e6374696f6e206d7573742062652063616c6c6564207468726f7567682060448201527f6163746976652070726f7879000000000000000000000000000000000000000060648201526084016107bc565b6117cd826123d4565b610af2828260016123df565b600054610100900460ff16158080156117f95750600054600160ff909116105b806118135750303b158015611813575060005460ff166001145b61189f576040517f08c379a000000000000000000000000000000000000000000000000000000000815260206004820152602e60248201527f496e697469616c697a61626c653a20636f6e747261637420697320616c72656160448201527f647920696e697469616c697a656400000000000000000000000000000000000060648201526084016107bc565b600080547fffffffffffffffffffffffffffffffffffffffffffffffffffffffffffffff0016600117905580156118fd57600080547fffffffffffffffffffffffffffffffffffffffffffffffffffffffffffff00ff166101001790555b8251845114158061190d57508351155b15611944576040517fc6617b7b00000000000000000000000000000000000000000000000000000000815260040160405180910390fd5b61196860405180606001604052806060815260200160608152602001600081525090565b50604080516060810182528581526020810185905267ffffffffffffffff84168183015290517f37c7b5a600000000000000000000000000000000000000000000000000000000815273__$815ff532e41681dcdf8236f89dc1cc18b5$__906337c7b5a6906119db908490600401614732565b60006040518083038186803b1580156119f357600080fd5b505af4158015611a07573d6000803e3d6000fd5b505050506000611a16826125de565b9050611a206129b5565b611a28612a4c565b611a33600033612aeb565b8651611a479061015f9060208a019061346c565b50600061016281815567ffffffffffffffff86166101635561016483905581611a6f8161431f565b90915550506001610161556101625460405167ffffffffffffffff8616907f20d5dcc846f7451afb9c8dc6dbf5f2242d04549ae17eb976f19b36cb4d7e165690611ac09061015f908b908b9061489c565b60405180910390a350508015610a1757600080547fffffffffffffffffffffffffffffffffffffffffffffffffffffffffffff00ff169055604051600181527f7f26b83ff96e1f2b6a682f133852f6798a09c465da95921460cefb38474024989060200160405180910390a15050505050565b60003073ffffffffffffffffffffffffffffffffffffffff7f00000000000000000000000000000000000000000000000000000000000000001614611bfa576040517f08c379a000000000000000000000000000000000000000000000000000000000815260206004820152603860248201527f555550535570677261646561626c653a206d757374206e6f742062652063616c60448201527f6c6564207468726f7567682064656c656761746563616c6c000000000000000060648201526084016107bc565b507f360894a13ba1a3210667c828492db98dca3e2076cc3735a920a3ca505d382bbc90565b6000611c2a816120c2565b73ffffffffffffffffffffffffffffffffffffffff8216611ca7576040517f08c379a000000000000000000000000000000000000000000000000000000000815260206004820152600360248201527f433032000000000000000000000000000000000000000000000000000000000060448201526064016107bc565b61016080547fffffffffffffffffffffffff00000000000000000000000000000000000000001673ffffffffffffffffffffffffffffffffffffffff84169081179091556040519081527fa61fe9500102ba95e70ba9796789006b4719448a4ebc364e6c2c943d5d63d18f9060200160405180910390a15050565b6000611d2c6120cc565b61016554341015611d99576040517f08c379a000000000000000000000000000000000000000000000000000000000815260206004820152600360248201527f433033000000000000000000000000000000000000000000000000000000000060448201526064016107bc565b8915611ecd578888604051611daf9291906148d5565b6040519081900390207fc5d2460186f7233c927e7db2dcc703c0e500b653ca82273b7bfad8045d85a4701415611e41576040517f08c379a000000000000000000000000000000000000000000000000000000000815260206004820152600360248201527f433034000000000000000000000000000000000000000000000000000000000060448201526064016107bc565b610160546040517f6e553f65000000000000000000000000000000000000000000000000000000008152600481018c905233602482015273ffffffffffffffffffffffffffffffffffffffff90911690636e553f6590604401600060405180830381600087803b158015611eb457600080fd5b505af1158015611ec8573d6000803e3d6000fd5b505050505b6101628054906000611ede8361431f565b9190505550611ef58b8b89898d8d8b8b8b8b612af5565b50610162549a9950505050505050505050565b6000611f13816120c2565b610cf9612b54565b61015f8054611f2990613f1c565b80601f0160208091040260200160405190810160405280929190818152602001828054611f5590613f1c565b8015611fa25780601f10611f7757610100808354040283529160200191611fa2565b820191906000526020600020905b815481529060010190602001808311611f8557829003601f168201915b505050505081565b600082815260976020526040902060010154611fc5816120c2565b61072b8383612319565b6000611fda816120c2565b5061016555565b600061016554341015612050576040517f08c379a000000000000000000000000000000000000000000000000000000000815260206004820152600360248201527f433033000000000000000000000000000000000000000000000000000000000060448201526064016107bc565b61016280549060006120618361431f565b9190505550610162547f1ff6cbf099d2cd90494426a312eae3d52a88116b0ee9f37e074072a79a2334893361015f8560405161209f939291906148e5565b60405180910390a250506101625490565b60006120bb816120c2565b5061016155565b610cf98133612baf565b60335460ff1615612139576040517f08c379a000000000000000000000000000000000000000000000000000000000815260206004820152601060248201527f5061757361626c653a207061757365640000000000000000000000000000000060448201526064016107bc565b565b600261012d5414156121a9576040517f08c379a000000000000000000000000000000000000000000000000000000000815260206004820152601f60248201527f5265656e7472616e637947756172643a207265656e7472616e742063616c6c0060448201526064016107bc565b600261012d55565b610164546121c1610d9f8661425f565b146121f8576040517f723a340300000000000000000000000000000000000000000000000000000000815260040160405180910390fd5b80516020820120600061220a82612664565b905061221d8686868463a66666666126cb565b505050505050565b600082815260976020908152604080832073ffffffffffffffffffffffffffffffffffffffff8516845290915290205460ff16610af257600082815260976020908152604080832073ffffffffffffffffffffffffffffffffffffffff85168452909152902080547fffffffffffffffffffffffffffffffffffffffffffffffffffffffffffffff001660011790556122bb3390565b73ffffffffffffffffffffffffffffffffffffffff168173ffffffffffffffffffffffffffffffffffffffff16837f2f8788117e7eff1d82e926ec794901d17c78024a50270940304540a733656f0d60405160405180910390a45050565b600082815260976020908152604080832073ffffffffffffffffffffffffffffffffffffffff8516845290915290205460ff1615610af257600082815260976020908152604080832073ffffffffffffffffffffffffffffffffffffffff8516808552925280832080547fffffffffffffffffffffffffffffffffffffffffffffffffffffffffffffff0016905551339285917ff6391f5c32d9c69d2a47ea670b442974b53935d1edc7fd64eb21e047a839171b9190a45050565b6000610af2816120c2565b7f4910fdfa16fed3260ed0e7147f7cc6da11a60208b5b9406d12a635614ffd91435460ff16156124125761072b83612c69565b8273ffffffffffffffffffffffffffffffffffffffff166352d1902d6040518163ffffffff1660e01b8152600401602060405180830381865afa925050508015612497575060408051601f3d9081017fffffffffffffffffffffffffffffffffffffffffffffffffffffffffffffffe016820190925261249491810190614926565b60015b612523576040517f08c379a000000000000000000000000000000000000000000000000000000000815260206004820152602e60248201527f45524331393637557067726164653a206e657720696d706c656d656e7461746960448201527f6f6e206973206e6f74205555505300000000000000000000000000000000000060648201526084016107bc565b7f360894a13ba1a3210667c828492db98dca3e2076cc3735a920a3ca505d382bbc81146125d2576040517f08c379a000000000000000000000000000000000000000000000000000000000815260206004820152602960248201527f45524331393637557067726164653a20756e737570706f727465642070726f7860448201527f6961626c6555554944000000000000000000000000000000000000000000000060648201526084016107bc565b5061072b838383612d73565b6000807f636865636b706f696e740000000000000000000000000000000000000000000060001b836040015184600001518560200151604051602001612627949392919061493f565b604080517fffffffffffffffffffffffffffffffffffffffffffffffffffffffffffffffe081840301815291905280516020909101209392505050565b60006040518060400160405280601c81526020017f19457468657265756d205369676e6564204d6573736167653a0a333200000000815250826040516020016126ae92919061497b565b604051602081830303815290604052805190602001209050919050565b6000805b6126d98780614358565b90508167ffffffffffffffff1610156128d65785858267ffffffffffffffff168181106127085761270861499d565b905060200281019061271a91906149cc565b9050604114612755576040517f4be6321b00000000000000000000000000000000000000000000000000000000815260040160405180910390fd5b600086868367ffffffffffffffff168181106127735761277361499d565b905060200281019061278591906149cc565b8080601f01602080910402602001604051908101604052809392919081815260200183838082843760009201829052506020850151604086015160608701519697509095909450901a91505080156128bf5761281c6127e48c80614358565b8767ffffffffffffffff168181106127fe576127fe61499d565b90506020020160208101906128139190613570565b89858585612d98565b612852576040517f8baa579f00000000000000000000000000000000000000000000000000000000815260040160405180910390fd5b61285f60208c018c614358565b8667ffffffffffffffff168181106128795761287961499d565b905060200201602081019061288e9190614a31565b6128989087614a4c565b95508667ffffffffffffffff168667ffffffffffffffff1611156128bf57505050506128d6565b5050505080806128ce90614a78565b9150506126cf565b508167ffffffffffffffff168167ffffffffffffffff161161221d576040517ffc86a67100000000000000000000000000000000000000000000000000000000815267ffffffffffffffff8083166004830152831660248201526044016107bc565b612940612ddf565b603380547fffffffffffffffffffffffffffffffffffffffffffffffffffffffffffffff001690557f5db9ee0a495bf2e6ff9c91a7834c1ba4fdd244a5e8aa4e537bd38aeae4b073aa335b60405173ffffffffffffffffffffffffffffffffffffffff909116815260200160405180910390a1565b600054610100900460ff16612139576040517f08c379a000000000000000000000000000000000000000000000000000000000815260206004820152602b60248201527f496e697469616c697a61626c653a20636f6e7472616374206973206e6f74206960448201527f6e697469616c697a696e6700000000000000000000000000000000000000000060648201526084016107bc565b600054610100900460ff16612ae3576040517f08c379a000000000000000000000000000000000000000000000000000000000815260206004820152602b60248201527f496e697469616c697a61626c653a20636f6e7472616374206973206e6f74206960448201527f6e697469616c697a696e6700000000000000000000000000000000000000000060648201526084016107bc565b612139612e4b565b610af28282612225565b610162547ffe97fc293d7232e604aad58a3d02e21ee253fa0462586ea83bf3d6a84d987a6a8b8b3361015f8d8d8d8d8d8d8d8d604051612b409c9b9a99989796959493929190614ae9565b60405180910390a250505050505050505050565b612b5c6120cc565b603380547fffffffffffffffffffffffffffffffffffffffffffffffffffffffffffffff001660011790557f62e78cea01bee320cd4e420270b5ea74000d11b0c9f74754ebdbfc544b05a25861298b3390565b600082815260976020908152604080832073ffffffffffffffffffffffffffffffffffffffff8516845290915290205460ff16610af257612bef81612f0c565b612bfa836020612f2b565b604051602001612c0b929190614b8c565b604080517fffffffffffffffffffffffffffffffffffffffffffffffffffffffffffffffe0818403018152908290527f08c379a00000000000000000000000000000000000000000000000000000000082526107bc91600401613ed4565b73ffffffffffffffffffffffffffffffffffffffff81163b612d0d576040517f08c379a000000000000000000000000000000000000000000000000000000000815260206004820152602d60248201527f455243313936373a206e657720696d706c656d656e746174696f6e206973206e60448201527f6f74206120636f6e74726163740000000000000000000000000000000000000060648201526084016107bc565b7f360894a13ba1a3210667c828492db98dca3e2076cc3735a920a3ca505d382bbc80547fffffffffffffffffffffffff00000000000000000000000000000000000000001673ffffffffffffffffffffffffffffffffffffffff92909216919091179055565b612d7c83613175565b600082511180612d895750805b1561072b57610e9883836131c2565b6000612da685858585613301565b73ffffffffffffffffffffffffffffffffffffffff168673ffffffffffffffffffffffffffffffffffffffff1614905095945050505050565b60335460ff16612139576040517f08c379a000000000000000000000000000000000000000000000000000000000815260206004820152601460248201527f5061757361626c653a206e6f742070617573656400000000000000000000000060448201526064016107bc565b600054610100900460ff16612ee2576040517f08c379a000000000000000000000000000000000000000000000000000000000815260206004820152602b60248201527f496e697469616c697a61626c653a20636f6e7472616374206973206e6f74206960448201527f6e697469616c697a696e6700000000000000000000000000000000000000000060648201526084016107bc565b603380547fffffffffffffffffffffffffffffffffffffffffffffffffffffffffffffff00169055565b60606106d873ffffffffffffffffffffffffffffffffffffffff831660145b60606000612f3a836002614c0d565b612f45906002614c4a565b67ffffffffffffffff811115612f5d57612f5d6135ef565b6040519080825280601f01601f191660200182016040528015612f87576020820181803683370190505b5090507f300000000000000000000000000000000000000000000000000000000000000081600081518110612fbe57612fbe61499d565b60200101907effffffffffffffffffffffffffffffffffffffffffffffffffffffffffffff1916908160001a9053507f7800000000000000000000000000000000000000000000000000000000000000816001815181106130215761302161499d565b60200101907effffffffffffffffffffffffffffffffffffffffffffffffffffffffffffff1916908160001a905350600061305d846002614c0d565b613068906001614c4a565b90505b6001811115613105577f303132333435363738396162636465660000000000000000000000000000000085600f16601081106130a9576130a961499d565b1a60f81b8282815181106130bf576130bf61499d565b60200101907effffffffffffffffffffffffffffffffffffffffffffffffffffffffffffff1916908160001a90535060049490941c936130fe81614c62565b905061306b565b50831561316e576040517f08c379a000000000000000000000000000000000000000000000000000000000815260206004820181905260248201527f537472696e67733a20686578206c656e67746820696e73756666696369656e7460448201526064016107bc565b9392505050565b61317e81612c69565b60405173ffffffffffffffffffffffffffffffffffffffff8216907fbc7cd75a20ee27fd9adebab32041f755214dbc6bffa90cc0225b39da2e5c2d3b90600090a250565b606073ffffffffffffffffffffffffffffffffffffffff83163b613268576040517f08c379a000000000000000000000000000000000000000000000000000000000815260206004820152602660248201527f416464726573733a2064656c65676174652063616c6c20746f206e6f6e2d636f60448201527f6e7472616374000000000000000000000000000000000000000000000000000060648201526084016107bc565b6000808473ffffffffffffffffffffffffffffffffffffffff168460405161329091906140a2565b600060405180830381855af49150503d80600081146132cb576040519150601f19603f3d011682016040523d82523d6000602084013e6132d0565b606091505b50915091506132f88282604051806060016040528060278152602001614c9860279139613414565b95945050505050565b60007f7fffffffffffffffffffffffffffffff5d576e7357a4501ddfe92f46681b20a083111561335d576040517f40c1e74800000000000000000000000000000000000000000000000000000000815260040160405180910390fd5b6040805160008082526020820180845288905260ff851692820192909252606081018690526080810185905260019060a0016020604051602081039080840390855afa1580156133b1573d6000803e3d6000fd5b5050506020604051035191508173ffffffffffffffffffffffffffffffffffffffff16141561340c576040517f629289a100000000000000000000000000000000000000000000000000000000815260040160405180910390fd5b949350505050565b6060831561342357508161316e565b61316e83838151156134385781518083602001fd5b806040517f08c379a00000000000000000000000000000000000000000000000000000000081526004016107bc9190613ed4565b82805461347890613f1c565b90600052602060002090601f01602090048101928261349a57600085556134e0565b82601f106134b357805160ff19168380011785556134e0565b828001600101855582156134e0579182015b828111156134e05782518255916020019190600101906134c5565b506134ec9291506134f0565b5090565b5b808211156134ec57600081556001016134f1565b60006020828403121561351757600080fd5b81357fffffffff000000000000000000000000000000000000000000000000000000008116811461316e57600080fd5b803573ffffffffffffffffffffffffffffffffffffffff8116811461356b57600080fd5b919050565b60006020828403121561358257600080fd5b61316e82613547565b60006060828403121561359d57600080fd5b50919050565b60008083601f8401126135b557600080fd5b50813567ffffffffffffffff8111156135cd57600080fd5b6020830191508360208260051b85010111156135e857600080fd5b9250929050565b7f4e487b7100000000000000000000000000000000000000000000000000000000600052604160045260246000fd5b60405160c0810167ffffffffffffffff81118282101715613641576136416135ef565b60405290565b604051610160810167ffffffffffffffff81118282101715613641576136416135ef565b604051601f82017fffffffffffffffffffffffffffffffffffffffffffffffffffffffffffffffe016810167ffffffffffffffff811182821017156136b2576136b26135ef565b604052919050565b600082601f8301126136cb57600080fd5b813567ffffffffffffffff8111156136e5576136e56135ef565b61371660207fffffffffffffffffffffffffffffffffffffffffffffffffffffffffffffffe0601f8401160161366b565b81815284602083860101111561372b57600080fd5b816020850160208301376000918101602001919091529392505050565b8015158114610cf957600080fd5b803561356b81613748565b60008060008060006080868803121561377957600080fd5b853567ffffffffffffffff8082111561379157600080fd5b61379d89838a0161358b565b965060208801359150808211156137b357600080fd5b6137bf89838a016135a3565b909650945060408801359150808211156137d857600080fd5b9087019060c0828a0312156137ec57600080fd5b6137f461361e565b823581526020830135602082015260408301358281111561381457600080fd5b6138208b8286016136ba565b60408301525061383260608401613547565b606082015260808301358281111561384957600080fd5b6138558b8286016136ba565b60808301525061386760a08401613756565b60a08201529350606088013591508082111561388257600080fd5b5061388f888289016136ba565b9150509295509295909350565b6000602082840312156138ae57600080fd5b5035919050565b600080604083850312156138c857600080fd5b823591506138d860208401613547565b90509250929050565b600080600080606085870312156138f757600080fd5b843567ffffffffffffffff8082111561390f57600080fd5b61391b8883890161358b565b9550602087013591508082111561393157600080fd5b61393d8883890161358b565b9450604087013591508082111561395357600080fd5b50613960878288016135a3565b95989497509550505050565b60008060008060006080868803121561398457600080fd5b853567ffffffffffffffff8082111561399c57600080fd5b6139a889838a0161358b565b965060208801359150808211156139be57600080fd5b6139ca89838a016135a3565b909650945060408801359150808211156139e357600080fd5b90870190610160828a0312156139f857600080fd5b613a00613647565b823581526020830135602082015260408301356040820152606083013582811115613a2a57600080fd5b613a368b8286016136ba565b606083015250613a4860808401613547565b608082015260a083013582811115613a5f57600080fd5b613a6b8b8286016136ba565b60a083015250613a7d60c08401613547565b60c082015260e083013582811115613a9457600080fd5b613aa08b8286016136ba565b60e083015250610100613ab4818501613547565b908201526101208381013583811115613acc57600080fd5b613ad88c8287016136ba565b828401525050610140613aec818501613756565b908201529350606088013591508082111561388257600080fd5b60008060408385031215613b1957600080fd5b613b2283613547565b9150602083013567ffffffffffffffff811115613b3e57600080fd5b613b4a858286016136ba565b9150509250929050565b600067ffffffffffffffff821115613b6e57613b6e6135ef565b5060051b60200190565b600082601f830112613b8957600080fd5b81356020613b9e613b9983613b54565b61366b565b82815260059290921b84018101918181019086841115613bbd57600080fd5b8286015b84811015613bdf57613bd281613547565b8352918301918301613bc1565b509695505050505050565b803567ffffffffffffffff8116811461356b57600080fd5b600082601f830112613c1357600080fd5b81356020613c23613b9983613b54565b82815260059290921b84018101918181019086841115613c4257600080fd5b8286015b84811015613bdf57613c5781613bea565b8352918301918301613c46565b60008060008060808587031215613c7a57600080fd5b843567ffffffffffffffff80821115613c9257600080fd5b613c9e888389016136ba565b95506020870135915080821115613cb457600080fd5b613cc088838901613b78565b94506040870135915080821115613cd657600080fd5b50613ce387828801613c02565b925050613cf260608601613bea565b905092959194509250565b60008060408385031215613d1057600080fd5b823567ffffffffffffffff811115613d2757600080fd5b613d33858286016136ba565b95602094909401359450505050565b60008083601f840112613d5457600080fd5b50813567ffffffffffffffff811115613d6c57600080fd5b6020830191508360208285010111156135e857600080fd5b60008060008060008060008060008060c08b8d031215613da357600080fd5b8a35995060208b0135985060408b013567ffffffffffffffff80821115613dc957600080fd5b613dd58e838f01613d42565b909a50985060608d0135915080821115613dee57600080fd5b613dfa8e838f01613d42565b909850965060808d0135915080821115613e1357600080fd5b613e1f8e838f01613d42565b909650945060a08d0135915080821115613e3857600080fd5b50613e458d828e01613d42565b915080935050809150509295989b9194979a5092959850565b60005b83811015613e79578181015183820152602001613e61565b83811115610e985750506000910152565b60008151808452613ea2816020860160208601613e5e565b601f017fffffffffffffffffffffffffffffffffffffffffffffffffffffffffffffffe0169290920160200192915050565b60208152600061316e6020830184613e8a565b600060208284031215613ef957600080fd5b813567ffffffffffffffff811115613f1057600080fd5b61340c848285016136ba565b600181811c90821680613f3057607f821691505b6020821081141561359d577f4e487b7100000000000000000000000000000000000000000000000000000000600052602260045260246000fd5b60008154613f7781613f1c565b808552602060018381168015613f945760018114613fc657613ff4565b7fffffffffffffffffffffffffffffffffffffffffffffffffffffffffffffff00851683890152604088019550613ff4565b866000528260002060005b85811015613fec5781548a8201860152908301908401613fd1565b890184019650505b505050505092915050565b60006101008a83528060208401526140198184018b613f6a565b905088604084015287606084015282810360808401526140398188613e8a565b905073ffffffffffffffffffffffffffffffffffffffff861660a084015282810360c08401526140698186613e8a565b91505082151560e08301529998505050505050505050565b83815282151560208201526060604082015260006132f86060830184613e8a565b600082516140b4818460208701613e5e565b9190910192915050565b6080815260006140d16080830187613e8a565b82810360208401526140e38187613f6a565b905082810360408401526140f78186613e8a565b915050821515606083015295945050505050565b60008083357fffffffffffffffffffffffffffffffffffffffffffffffffffffffffffffffe184360301811261414057600080fd5b830160208101925035905067ffffffffffffffff81111561416057600080fd5b8060051b36038313156135e857600080fd5b600060608301614182838461410b565b606086529182905290600090608086015b818310156141cf5773ffffffffffffffffffffffffffffffffffffffff6141b985613547565b1681526020938401936001939093019201614193565b602093506141df8487018761410b565b888303868a01528083529350915060009084015b838210156142225767ffffffffffffffff61420d84613bea565b168152918401916001919091019084016141f3565b60408701356040890152809550505050505092915050565b60408152600061424d6040830185614172565b82810360208401526132f88185614172565b60006060823603121561427157600080fd5b6040516060810167ffffffffffffffff8282108183111715614295576142956135ef565b8160405284359150808211156142aa57600080fd5b6142b636838701613b78565b835260208501359150808211156142cc57600080fd5b506142d936828601613c02565b602083015250604092830135928101929092525090565b7f4e487b7100000000000000000000000000000000000000000000000000000000600052601160045260246000fd5b60007fffffffffffffffffffffffffffffffffffffffffffffffffffffffffffffffff821415614351576143516142f0565b5060010190565b60008083357fffffffffffffffffffffffffffffffffffffffffffffffffffffffffffffffe184360301811261438d57600080fd5b83018035915067ffffffffffffffff8211156143a857600080fd5b6020019150600581901b36038213156135e857600080fd5b6060815260006143d36060830188613f6a565b8281036020848101919091528682528791810160005b888110156144225773ffffffffffffffffffffffffffffffffffffffff61440f85613547565b16825292820192908201906001016143e9565b508481036040860152858152810191508560005b868110156144635767ffffffffffffffff61445083613bea565b1684529282019290820190600101614436565b50919998505050505050505050565b60006101808e83528d60208401528c60408401528b606084015280608084015261449e8184018c613e8a565b905073ffffffffffffffffffffffffffffffffffffffff808b1660a085015283820360c08501526144cf828b613e8a565b90891660e085015283810361010085015290506144ec8188613e8a565b73ffffffffffffffffffffffffffffffffffffffff8716610120850152905082810361014084015261451e8186613e8a565b91505061453061016083018415159052565b9d9c50505050505050505050505050565b600080835461454f81613f1c565b600182811680156145675760018114614596576145c5565b7fffffffffffffffffffffffffffffffffffffffffffffffffffffffffffffff008416875282870194506145c5565b8760005260208060002060005b858110156145bc5781548a8201529084019082016145a3565b50505082870194505b50929695505050505050565b86815285602082015260c0604082015260006145f060c0830187613e8a565b82810360608401526146028187613e8a565b905082810360808401526146168186613e8a565b91505073ffffffffffffffffffffffffffffffffffffffff831660a0830152979650505050505050565b60006020828403121561465257600080fd5b815161316e81613748565b821515815260406020820152600061340c6040830184613e8a565b60c08152600061468b60c0830189613e8a565b828103602084015261469d8189613f6a565b905082810360408401526146b18188613e8a565b905082810360608401526146c58187613e8a565b905082810360808401526146d98186613e8a565b91505082151560a0830152979650505050505050565b6060815260006147026060830186613e8a565b82810360208401526147148186613e8a565b905082810360408401526147288185613e8a565b9695505050505050565b6020808252825160608383015280516080840181905260009291820190839060a08601905b8083101561478d57835173ffffffffffffffffffffffffffffffffffffffff168252928401926001929092019190840190614757565b50868401518682037fffffffffffffffffffffffffffffffffffffffffffffffffffffffffffffffe00160408801528051808352908501935090840191506000905b808210156147f957835167ffffffffffffffff1683529284019291840191600191909101906147cf565b50506040860151606086015280935050505092915050565b600081518084526020808501945080840160005b8381101561485757815173ffffffffffffffffffffffffffffffffffffffff1687529582019590820190600101614825565b509495945050505050565b600081518084526020808501945080840160005b8381101561485757815167ffffffffffffffff1687529582019590820190600101614876565b6060815260006148af6060830186613f6a565b82810360208401526148c18186614811565b905082810360408401526147288185614862565b8183823760009101908152919050565b73ffffffffffffffffffffffffffffffffffffffff841681526060602082015260006149146060830185613f6a565b82810360408401526147288185613e8a565b60006020828403121561493857600080fd5b5051919050565b84815283602082015260806040820152600061495e6080830185614811565b82810360608401526149708185614862565b979650505050505050565b6000835161498d818460208801613e5e565b9190910191825250602001919050565b7f4e487b7100000000000000000000000000000000000000000000000000000000600052603260045260246000fd5b60008083357fffffffffffffffffffffffffffffffffffffffffffffffffffffffffffffffe1843603018112614a0157600080fd5b83018035915067ffffffffffffffff821115614a1c57600080fd5b6020019150368190038213156135e857600080fd5b600060208284031215614a4357600080fd5b61316e82613bea565b600067ffffffffffffffff808316818516808303821115614a6f57614a6f6142f0565b01949350505050565b600067ffffffffffffffff80831681811415614a9657614a966142f0565b6001019392505050565b8183528181602085013750600060208284010152600060207fffffffffffffffffffffffffffffffffffffffffffffffffffffffffffffffe0601f840116840101905092915050565b60006101008e83528d602084015273ffffffffffffffffffffffffffffffffffffffff8d166040840152806060840152614b258184018d613f6a565b90508281036080840152614b3a818b8d614aa0565b905082810360a0840152614b4f81898b614aa0565b905082810360c0840152614b64818789614aa0565b905082810360e0840152614b79818587614aa0565b9f9e505050505050505050505050505050565b7f416363657373436f6e74726f6c3a206163636f756e7420000000000000000000815260008351614bc4816017850160208801613e5e565b7f206973206d697373696e6720726f6c65200000000000000000000000000000006017918401918201528351614c01816028840160208801613e5e565b01602801949350505050565b6000817fffffffffffffffffffffffffffffffffffffffffffffffffffffffffffffffff0483118215151615614c4557614c456142f0565b500290565b60008219821115614c5d57614c5d6142f0565b500190565b600081614c7157614c716142f0565b507fffffffffffffffffffffffffffffffffffffffffffffffffffffffffffffffff019056fe416464726573733a206c6f772d6c6576656c2064656c65676174652063616c6c206661696c6564a164736f6c634300080a000a",
    "linkReferences": {
        "contracts/libraries/ValsetUpdate.sol": {
            "ValsetUpdate": [
                {
                    "length": 20,
                    "start": 3456
                },
                {
                    "length": 20,
                    "start": 6655
                }
            ]
        }
    },
    "deployedLinkReferences": {
        "contracts/libraries/ValsetUpdate.sol": {
            "ValsetUpdate": [
                {
                    "length": 20,
                    "start": 3380
                },
                {
                    "length": 20,
                    "start": 6579
                }
            ]
        }
    }
}